:020000040800F2
:1000000060090020050100080D0100080F0100082B
:10001000110100081301000815010008000000008C
:1000200000000000000000000000000017010008B0
:1000300019010008000000001B0100081D01000854
:100040001F0100081F0100081F0100081F01000810
:100050001F0100081F0100081F0100081F01000800
:100060001F0100081F010008A50200081F01000869
:100070001F0100081F0100081F0100081F010008E0
:100080001F0100081F0100081F0100081F010008D0
:100090001F0100081F0100081F0100081F010008C0
:1000A0001F0100081F0100081F0100081F010008B0
:1000B0001F0100081F0100081F0100081F010008A0
:1000C0001F0100081F0100081F0100081F01000890
:1000D0001F0100081F0100081F0100081F01000880
:1000E0001F0100081F0100081F010008DFF810D0E1
:1000F00000F078F800480047B5470008AFF30080EB
:10010000600900200648804706480047FEE7FEE7F2
:10011000FEE7FEE7FEE7FEE7FEE7FEE7FEE7FEE7B7
:1001200031090008ED00000840EA01039B0703D0F5
:1001300009E008C9121F08C0042AFAD203E011F826
:10014000013B00F8013B521EF9D27047D2B201E0E8
:1001500000F8012B491EFBD270470022F6E710B5CC
:1001600013460A4604461946FFF7F0FF204610BD25
:10017000034611F8012B00F8012B002AF9D118468B
:1001800070472DE9F05F0546002092469B46884661
:100190000646814640241BE0284641464746224603
:1001A00000F041F853465A46C01A914110D3114607
:1001B0001846224600F028F82D1A67EB01084F4632
:1001C00022460120002100F01FF817EB00094E41E4
:1001D000201EA4F10104DFDC484631462A4643468E
:1001E000BDE8F09F064C074D06E0E06840F00103D3
:1001F00094E8070098471034AC42F6D3FFF77AFF33
:100200000C5600082C560008202A04DB203A00FA7D
:1002100002F1002070479140C2F1200320FA03F35D
:10022000194390407047202A04DB203A21FA02F05B
:100230000021704721FA02F3D040C2F12002914020
:1002400008431946704770B58D1810F8014B14F02B
:10025000030201D110F8012B231106D110F8013B44
:1002600003E010F8016B01F8016B521EF9D1ABB13C
:1002700010F8012B04F00C048A1A0C2C03D0A2EB0A
:1002800084129B1C08E010F8014BA2EB0422F8E753
:1002900012F8014B01F8014B5B1EF9D5A942D4D3EA
:1002A000002070BD10B5012002490870102000F038
:1002B00003F810BD380300200149086070470000B2
:1002C000140401402DE9F0410246002500260020DB
:1002D00000230024002791F803C00CF00F0591F8CB
:1002E00003C00CF0100CBCF1000F03D091F802C059
:1002F0004CEA050591F800C0BCF1000F31D014683C
:1003000000202BE04FF0010C0CFA00F3B1F800C014
:100310000CEA03069E4220D183004FF00F0C0CFA2A
:1003200003F7BC4305FA03FC4CEA040491F803C04C
:10033000BCF1280F06D14FF0010C0CFA00FCC2F8FA
:1003400014C00AE091F803C0BCF1480F05D14FF08A
:10035000010C0CFA00FCC2F810C0401C0828D1D3D4
:100360001460B1F800C0BCF1FF0F34DD5468002008
:100370002EE000F1080C4FF0010808FA0CF3B1F878
:1003800000C00CEA03069E4221D183004FF00F0CFF
:100390000CFA03F7BC4305FA03FC4CEA040491F899
:1003A00003C0BCF1280F05D100F1080C08FA0CF8C5
:1003B000C2F8148091F803C0BCF1480F07D100F1D6
:1003C000080C4FF0010808FA0CF8C2F81080401C25
:1003D0000828CED35460BDE8F081016170470AB1AE
:1003E000016100E04161704702490143024A116026
:1003F000704700000000FA050CED00E070B5002425
:100400000EE00021204600F0F0F8002504E0002076
:1004100000F07CF9681CC5B2802DF8DB601CC4B20A
:10042000082CEEDB70BD000008B50121082000F0AB
:100430007DF914208DF8030003208DF802004FF49D
:100440008070ADF8000069460A48FFF73BFF4FF4A3
:100450000070ADF8000069460648FFF733FF01223F
:1004600011020448FFF7BBFF012251020148FFF7C8
:10047000B6FF08BD000C014070B50546002415E02C
:100480008020204100EA05024FF400710E48FFF77A
:10049000A6FF012211020C48FFF7A1FF00224FF432
:1004A00080710948FFF79BFF601CC4B2082CE7DB92
:1004B000012211020448FFF792FF00224FF48071DD
:1004C0000148FFF78CFF70BD000C014010B5012200
:1004D00051020A48FFF783FF012211020748FFF784
:1004E0007EFF00224FF400710448FFF778FF0022DE
:1004F0004FF480710148FFF772FF10BD000C0140FE
:1005000010B500224FF400710648FFF768FF012282
:1005100011020448FFF763FF012251020148FFF76F
:100520005EFF10BD000C014070B5002406E0002500
:1005300000E06D1CB5F57A7FFBD3641CB4F57A7FBF
:10054000F5D3FFF771FFAE2000F0D0F8D52000F012
:10055000CDF8802000F0CAF8A82000F0C7F83F20AE
:1005600000F0C4F8D32000F0C1F8002000F0BEF87D
:10057000402000F0BBF8A12000F0B8F8C82000F03F
:10058000B5F8DA2000F0B2F8122000F0AFF88120C0
:1005900000F0ACF8CF2000F0A9F8D92000F0A6F8C0
:1005A000F12000F0A3F8DB2000F0A0F8302000F0EC
:1005B0009DF8A42000F09AF8A62000F097F88D206E
:1005C00000F094F8142000F091F8AF2000F08EF8BD
:1005D000FFF714FF70BD10B50246012000E0504344
:1005E0000B1EA1F10101FAD110BD70B505460C46F4
:1005F00045F0B00000F07AF8102141EA141000F044
:1006000075F804F00F0000F071F870BD2DE9F041AD
:1006100005460E461746721ED206110E6A1E520677
:10062000100EFFF7E2FF002409E0A7F12001134AB2
:1006300002EB0111085D00F069F8601CC4B2082CDF
:10064000F3DB721ED206110E6A1E012303EB420277
:10065000D0B2FFF7CAFF00240BE0A7F12001074A40
:1006600002EB011204F10801505C00F04FF8601C2D
:10067000C4B2082CF1DBBDE8F08100001C5000087A
:100680002DE9F04780460E4617461D46002415E02A
:10069000281B411E0A20FFF79EFFB7FBF0F00A213E
:1006A000B0FBF1F201FB120000F130093019C1B2C8
:1006B0004A464046FFF7AAFF601CC4B2AC42E7DBE3
:1006C000BDE8F0872DE9F04107460E4615460024A7
:1006D00007E02A5D3019C1B23846FFF797FF601C6A
:1006E000C4B2285D0028F4D1BDE8F08110B50446FD
:1006F000FFF7ECFE7820FFF7BFFE0020FFF7BCFEFF
:100700002046FFF7B9FEFFF7FBFE10BD10B504460B
:10071000FFF7DCFE7820FFF7AFFE4020FFF7ACFECE
:100720002046FFF7A9FEFFF7EBFE10BD29B1064AF0
:1007300092690243044B9A6104E0034A926982433E
:10074000014B9A61704700000010024030B5002153
:100750000022002400232D4D6D6805F00C0121B10D
:10076000042905D0082923D105E0294D056022E0A0
:10077000274D05601FE0254D6D6805F47012234D6F
:100780006D6805F48034022505EB92421CB9214DB9
:10079000554305600BE01D4D6D6805F400351DB136
:1007A0001C4D5543056002E0194D5543056002E0BC
:1007B000174D056000BF00BF144D6D6805F0F001D6
:1007C0000909154D6B5C0568DD4045600F4D6D688E
:1007D00005F4E061090A104D6B5C4568DD408560F9
:1007E0000A4D6D6805F46051C90A0B4D6B5C456894
:1007F000DD40C560054D6D6805F44041890B074D2E
:100800006B5CC568B5FBF3F5056130BD00100240B7
:1008100000127A0000093D0014000020240000208E
:1008200010B500F001F810BD0CB50020019000904B
:100830003348006840F480303149086000BF3048D8
:10084000006800F4003000900198401C019000986E
:1008500018B90198B0F5A06FF1D12948006800F4EB
:10086000003010B10120009001E0002000900098BD
:10087000012843D12348006840F010002149086056
:100880000846006820F0030008600846006840F051
:10089000020008601A4840681949486008464068E4
:1008A00048600846406840F48060486008464068F8
:1008B00020F47C1048600846406840F4E810486026
:1008C0000846006840F08070086000BF0C4800686F
:1008D00000F000700028F9D00948406820F00300BB
:1008E000074948600846406840F00200486000BF81
:1008F0000348406800F00C000828F9D10CBD000046
:100900000010024000200240042808D14FF0E021EE
:10091000096941F004014FF0E022116107E04FF056
:10092000E021096921F004014FF0E02211617047D4
:1009300010B51348006840F00100114908600846EE
:100940004068104908400E494860084600680E4952
:1009500008400B4908600846006820F480200860C1
:100960000846406820F4FE0048604FF41F0088608D
:10097000FFF756FF4FF000600449086010BD00000B
:10098000001002400000FFF8FFFFF6FE08ED00E057
:1009900021B1828942F40052828104E082894DF6BD
:1009A000FF731A408281704702460020B1F5007F34
:1009B00000D100BF13880B400BB1012000E00020E4
:1009C000704700002DE9F04786B005460E4600242A
:1009D000A24600BFA1460027B08900B100BF2F4644
:1009E0002C8A4CF6FF700440F08804432C82AC89BA
:1009F0004EF6F3100440B0883189084371890843EA
:100A00000443AC81AC8A4FF6FF400440B0890443F4
:100A1000AC8201A8FFF79AFE1F48874202D1DDF899
:100A200010A001E0DDF80CA0A88900F4004040B15E
:100A30000AEBCA0000EB0A1031684900B0FBF1F87C
:100A400007E00AEBCA0000EB0A1031688900B0FB2E
:100A5000F1F86420B8FBF0F004012009642101FBE7
:100A60001089A88900F4004040B1322000EBC90091
:100A7000B0FBF1F000F00700044308E0322000EB87
:100A800009106421B0FBF1F000F00F0004432C8149
:100A900006B0BDE8F087000000380140C1F308024D
:100AA000828070472DE9FC4106460F460024DA207B
:100AB000855D012D03D0022D01D0032D2ED16B4673
:100AC00001AA0121304600F0D7F904460198B0F59B
:100AD0007F0F03D80098B0F57F0F1FD9F4B92FB15D
:100AE0001049304602F09AFA044617E00422FF212A
:100AF000304601F01CF8044300227021304601F01A
:100B000016F804430022FF21304601F010F8044398
:100B100000228021304601F00AF804432046BDE857
:100B2000FC81000027010020F8B506460F4600248E
:100B3000002500BF01220B21304600F0F8FF0446DB
:100B400000220B21304600F0F2FF04436A461321D5
:100B5000304600F01AFC0443681CC5B29DF8000042
:100B600000F0070018B1032D01DA002CE2D0032DAC
:100B700001DB6FF00B042046F8BD000070B592B0A9
:100B8000054600240123FE228921284600F0A6FF05
:100B900004462CB900228821284600F0C8FF0446EC
:100BA0000021F02041554FF47A70A5F852014FF41E
:100BB000C870A5F854015A48C5F858015948C5F8F5
:100BC000D400296202A9284600F0BEF8044654B9B0
:100BD00000208DF808008DF80900402202A905F1D7
:100BE0001000FFF7A1FA642005F59A7528804FF4EC
:100BF000617068804FF4FA70A8804FF420602881FB
:100C000001202877A5F59A7501228021284600F059
:100C10008EFF04430122FF21284600F088FF044391
:100C200000221146284600F082FF044301AA9121C8
:100C3000284600F0AAFB04439DF8040085F83A0119
:100C400001220021284600F072FF04430022FF2108
:100C5000284600F06CFF044300228021284600F063
:100C600066FF0443002609E034B9B1B201222846E8
:100C700000F0C6FC044300E002E0761C062EF3DB25
:100C800000BF2CB900220221284600F0B9FC04461E
:100C90002CB900220321284600F0B2FC04462CB9EE
:100CA00000220421284600F0ABFC04462CB90022A7
:100CB0000521284600F0A4FC044634B94FF49012F4
:100CC0000021284600F0FDFC044634B94FF4804270
:100CD0000121284600F0F5FC044634B94FF40C120B
:100CE0000221284600F0EDFC04462CB90022032125
:100CF000284600F0E6FC04465CB9FF2085F8300188
:100D0000FF220121284600F012FF0446012085F849
:100D1000320114B9002185F81511204612B070BDBA
:100D2000856B0100A470090070B504460D460026CD
:100D30002946204601F04EFA0646304670BD02466E
:100D40000020137C0B7070472DE9F04107460D46DB
:100D5000002429463846FFF7F2FF04462CB905F176
:100D60000801384600F051F804460CB900202873F9
:100D70002CB905F11001384600F085FA04462CB96B
:100D800005F11401384600F037F90446E4B90026AD
:100D900017E04CB905F1240000EB8602B1B23846E9
:100DA00000F099F8044300E00DE044B905F11800A3
:100DB0008219B1B2384600F080F8044300E002E046
:100DC000761C062EE5DB00BF2CB905F13C01384648
:100DD00000F034FA044624B9291D384600F001F920
:100DE00004462046BDE8F08170B506460C46002555
:100DF00022460921304600F0C8FA05461DB9207880
:100E000000F001002070284670BD7CB506460C46F7
:100E1000002501AAF821304600F0E3FA05462DB975
:100E20006A460421304600F0C6FA054655B9BDF8B9
:100E3000040028B1BDF804100098B0FBF1F0206068
:100E40002168B16128467CBDF8B505460C460026F0
:100E50006A461321284600F098FA06469DF80000DD
:100E600000F0070020609DF8000000F0180008B1B5
:100E70006FF005063046F8BD2DE9F8430746884671
:100E800014461D4600266A460E21384600F0A9FA8F
:100E90000646BDF800000005C008206056B96A4645
:100EA0000C21384600F09DFA0646BDF8000000050A
:100EB000C00828603046BDE8F88330B503460020FE
:100EC000062903DB001F0025157003E003F1280548
:100ED0006C5C147030BD2DE9F84305460E4617468C
:100EE0004FF00008C146062E2FD2DFE806F00307B8
:100EF000161A1E1F6C6B4FF0000929E06A46442148
:100F0000284600F06EFA8046B8F1000F02D1BDF815
:100F1000000044024FF001091AE0EC6B4FF00009A9
:100F200016E02C6C4FF0000912E000BF6A46642105
:100F3000284600F056FA8046B8F1000F02D1BDF8FD
:100F4000000044024FF0000902E06FF0030800BF08
:100F500000BFB8F1000F16D1B9F1010F12D144B999
:100F600005F1340050F826403C6000210C388155D2
:100F700009E03C6005F1340040F8264001210C38BE
:100F8000815500E03C604046BDE8F8832DE9FC4116
:100F900005460C460026DA20475D042F0DD1694630
:100FA0002846FFF751FF06460098042802D1012089
:100FB000207013E00020207010E001AA14212846C0
:100FC00000F0E3F906464EB99DF8040000F0010078
:100FD00010B10120207001E0002020703046BDE8F3
:100FE000FC8170B504460D4600262946204601F0D6
:100FF00004FC0646304670BD70B504460D4600261A
:101000002946204601F070FC0646304670BD70B59A
:1010100004460D4600262946204601F091FC06466E
:10102000304670BD70B504460D4600262946204660
:1010300001F006FF0646304670BD2DE9F04F93B033
:1010400005460C464FF000080C230AAA1421284636
:1010500000F0DDF98046B8F1000F7DD10020A075C9
:1010600020609DF833009DF8321000EB012087B21C
:10107000002060609DF82F009DF82E1000EB0120ED
:101080000004C609E6609DF831009DF8301000EBC1
:10109000012080B20F900F98400220619DF82B0034
:1010A0009DF82A1000EB01201FFA80F9A4F8149093
:1010B0009DF828001290B5F852010D9095F831B1C5
:1010C0000D98B0F57A7F2AD00D98784300F5FA7024
:1010D0004FF47A7190FBF1F087B2288C80B20E90B9
:1010E000287F10901098D0B10E9800FB09F0A6EB65
:1010F000202040B9BBF1000F02D042F2B82A0DE027
:1011000048F6E02A0AE007FB06F10E9800FB09F01A
:10111000A6EB2020B1FBF0F01FFA80FA5746BBF196
:10112000000F05D0B8102081B807000EE07502E06E
:1011300027810020E07511A84B463246CDE90040DA
:101140002846129901F062FD40EA0808B8F1000F44
:1011500002D19DF844002076B8F1000F20D11C2266
:1011600005F1500103A8FEF7DFFF2089ADF8140058
:10117000E07D8DF823006089ADF81600606804906A
:10118000E068069020690790A08AADF82000207ED4
:101190008DF824001C2203A905F15000FEF7C4FFBE
:1011A000404613B0BDE8F08FF8B506460C46002562
:1011B000002000906A460121304600F0E6F805461E
:1011C0003DB923469DF800200021304603F048FC3D
:1011D00005463DB9A31C9DF800200121304603F0CF
:1011E0003FFC05463DB9631C9DF8002002213046B6
:1011F00003F036FC05463DB9E31C9DF800200321B1
:10120000304603F02DFC05463DB9231D9DF8002016
:101210000421304603F024FC05462846F8BD2DE99C
:10122000F04104460D461646002732462946204620
:1012300001F0A1FE07463846BDE8F081F8B5064644
:101240000C4600256A460121304600F09EF805460E
:101250006DB99DF8000086F830019DF8000000F09F
:10126000800010B10120207001E00020207015B92D
:10127000217886F84C102846F8BD10B502460020AB
:10128000137F0B7010BDF8B504460E4600276A4662
:101290002021204600F0A5F8074677B9BDF80000E8
:1012A00020B9256A35600021217706E0BDF80000ED
:1012B000C50035602562012121773846F8BD2DE94A
:1012C000F04104460D4616460027012332462946C2
:1012D000204601F077FF07463846BDE8F0812DE94A
:1012E000F04104460D461646002732462946204660
:1012F00001F08EFF07463846BDE8F08138B5054657
:10130000002469462846FFF71AFD044634B99DF8C3
:10131000000018B9284600F08BFA04461CB928468C
:1013200001F0F1FE04462CB99DF8000010B903202D
:1013300085F83201204638BD70B505460E460024BA
:101340000021284600F090F804461CB92846FFF713
:10135000D5FF044624B931462846FFF76EFE044601
:1013600024B900212846FFF7DFFB0446204670BD64
:1013700008B5014600200022009202E0009A521CAB
:101380000092009AFA2AF9D308BD2DE9F0470446E5
:101390000D461646002794F85C9132462946484689
:1013A00002F0DEF88046B8F1000F01D06FF01307AD
:1013B0003846BDE8F0872DE9F04704460D4616464D
:1013C000002794F85C9132462946484602F0D8F846
:1013D0008046B8F1000F01D06FF013073846BDE822
:1013E000F0872DE9F04704460D461646002794F88D
:1013F0005C9132462946484602F0F3F88046B8F13F
:10140000000F01D06FF013073846BDE8F0872DE9D3
:10141000F0470646884691461C464FF0000A402C8D
:1014200001D36FF0030A96F85C71A3B24A464146B5
:10143000384602F0C2F805460DB16FF0130A504667
:10144000BDE8F0872DE9F04105460C460026274609
:1014500004EBD770C0F347028A21284600F067FBEF
:1014600006463046BDE8F0810246002003290BD035
:1014700003DC39B101290BD105E0142905D0152968
:1014800006D103E000BF00BF00BF00BF117402E03F
:101490006FF0070000BF00BF70472DE9F04780469E
:1014A000894617461E46DDF820A00024B9F1000F3A
:1014B00002D06FF00904A0E0142F0CD1BAF1000F94
:1014C00001D1102500E001252A468421404600F084
:1014D0002EFB044691E0152F5AD10122FF214046F0
:1014E00000F025FB044300221146404600F01FFB9C
:1014F00004430022FF21404600F019FB044301226F
:101500008021404600F013FB04430222852140461F
:1015100000F00DFB04430422FF21404600F007FBCE
:1015200004430022CD21404600F001FB0443112278
:10153000CC21404600F0FBFA04430722FF2140463D
:1015400000F0F5FA04430022BE21404600F0EFFA15
:1015500004430622FF21404600F0E9FA0443092231
:10156000CC21404600F0E3FA04430022FF2140462C
:1015700000F0DDFA04430122FF21404600F0D7FAD3
:10158000044300221146404600F0D1FA044334E0FF
:10159000A4B9052E0ED2DFE806F0030507090B00FB
:1015A00000250AE0012508E0022506E0032504E005
:1015B000042502E06FF00A0400BF00BF2CB92A46E0
:1015C0000A21404600F0B3FA044664B9BAF1000FAC
:1015D00001D1002500E010252B46EF228421404652
:1015E00000F07CFA044614B9DA2000F8086024B947
:1015F00000214046FFF798FA04462046BDE8F087F0
:101600002DE9F05F04460D4616464FF00009CB4623
:101610000027BA46062D02DB6FF0030941E02EB920
:101620004FF0000B00274FF0010A06E004F13400F0
:1016300050F825B04FF0000A0127062D2DD2DFE823
:1016400005F003060E1114202820075528E0CBF3DF
:101650004F224421204600F080FA814620E084F8A1
:101660002A701DE084F82B701AE04FEA4A604FEAB6
:1016700010684346FE226021204600F02FFA814682
:101680000EE04FEA0A704FEA10684346EF226021ED
:10169000204600F023FA814602E06FF0030900BF04
:1016A00000BFB9F1000F09D126B9002104F12800CB
:1016B000415503E0012104F1280041554846BDE8A9
:1016C000F09F2DE9F04105460E461446002705F12E
:1016D000280010F80680B8F1000F03D10C3040F854
:1016E000264026E0062E1BD2DFE806F003050D0F8C
:1016F00011126C6317E0C4F34F224421284600F016
:101700002CFA07460FE0EC630DE02C640BE000BF01
:10171000C4F34F226421284600F01FFA074602E076
:101720006FF0030700BF00BF1FB905F1340040F898
:1017300026403846BDE8F08170B504460D460026C7
:101740002946204601F0BAFF0646304670BD2DE915
:10175000F84307460D4690460026002000900024DE
:101760006A4601213846FFF710FE06469DF8004004
:10177000002E36D1B8F1010F19D1052D13D2DFE8B3
:1017800005F00306090C0F0044F010040EE044F0CD
:1017900028040BE044F0040408E044F0400405E0B1
:1017A00044F0800402E06FF0030600BF19E0052D4D
:1017B00013D2DFE805F00306090C0F0004F0EF0474
:1017C0000EE004F0D7040BE004F0FB0408E004F0A2
:1017D000BF0405E004F07F0402E06FF0030600BFE1
:1017E00000BF9DF80000844210D02EB9224601218E
:1017F000384600F09CF906460EB987F830412EB9FC
:10180000D7F8149049463846FFF796FF3046BDE8B2
:10181000F8832DE9F04104460D461646002732466E
:101820002946204602F03EF807463846BDE8F081DA
:101830002DE9FC4106460024012701A93046FFF7A7
:101840007EFA01228021304600F071F9044601221F
:10185000FF21304600F06BF9044600221146304665
:1018600000F065F9044696F83A219121304600F0DF
:101870005EF9044601220021304600F058F9044682
:101880000022FF21304600F052F904460022802158
:10189000304600F04CF904469DF8040020B10128C0
:1018A00023D0032843D131E001220021304600F04B
:1018B0003EF904460097BCB9002500BF2DB16A4629
:1018C00000213046FFF761FD04466D1C9DF80000C5
:1018D0003840B84203D114B9B5F5FA6FEED3B5F577
:1018E000FA6F01D36FF0060424E024B901213046D9
:1018F000FFF7D8F8044602220021304600F017F91D
:10190000044614B9042086F8320113E024B90121F9
:101910003046FFF7C7F8044604220021304600F0A5
:1019200006F9044614B9042086F8320102E06FF08B
:10193000070400BF00BF2046BDE8FC812DE9F0434D
:1019400097B005460024402107A8FEF706FC0020BA
:1019500006900590814600270490039000260121FF
:10196000284600F0A5FC044695F8137195F814611B
:10197000012E05DC01D1202F02D846B90C2F06D943
:1019800004AA03A9284601F043FC044605E03246B8
:101990003946284601F025FF0446DFF83C814CB962
:1019A00095F85091B9F1000F02D1D5F84C8101E0C2
:1019B000DFF8248124B94146284601F02FFB044674
:1019C00044B9002004230246014600902846FFF750
:1019D00064FD04468CB90122FF21284600F0A7F8D7
:1019E000044606AA84212846FFF7FBFC0443002294
:1019F000FF21284600F09BF8044324B9BDF81800E5
:101A00000001C5F8D40024B907A92846FFF79CF9BE
:101A100004464CB905A92846FFF7E6F904461CB967
:101A20009DF8140085F831012CB9402207A905F171
:101A30001000FEF779FB54B905AA01212846FFF7EB
:101A4000A4FC04461CB99DF8140085F830012CB99B
:101A5000002211462846FFF77AFE04462CB90022E0
:101A600002212846FFF773FE044614B9032085F8C7
:101A700032012CB902AA00212846FFF7D0FB044608
:101A80001CB99DF80810E82041552CB902AA012183
:101A90002846FFF7C4FB04461CB99DF80810E02057
:101AA00041552CB901AA0321284602F0E5FD044660
:101AB00014B9E420019941512CB901AA0421284606
:101AC00002F0DAFD044614B9DC20019941512046A8
:101AD00017B0BDE8F0830000340000202DE9F84F76
:101AE0000446894615461E46002794F85CA16A46BE
:101AF0004946504601F034FD8046B8F1000F01D050
:101B00006FF0130787B99DF800002840304300901C
:101B10009DF800204946504602F043F88046B8F14F
:101B2000000F01D06FF013073846BDE8F88F2DE99C
:101B3000F04704460D461646002794F85C9132465D
:101B40002946484602F02DF88046B8F1000F01D032
:101B50006FF013073846BDE8F0872DE9F0470446DB
:101B60000D461646002794F85C91324629464846B1
:101B700002F038F88046B8F1000F01D06FF013077B
:101B80003846BDE8F0872DE9F04705460F469046F8
:101B90001C464FF00009CA46402C01D36FF00309E0
:101BA00095F85C61A3B242463946304602F006F829
:101BB0008246BAF1000F01D06FF013094846BDE824
:101BC000F08700002DE9FF4F90B01746DDF87880D0
:101BD00012200F904FF480400E9042200D9006206E
:101BE0000C9007200B90002000901098B0F8540142
:101BF0000A901098D0F858010990DDE9091000FB0F
:101C000001FA0AF180004FEA102A0A980AFB00FA4A
:101C100000256FB1119880020190019800EB5705E3
:101C2000B5FBF7F505EB45056D4305F50040050CE3
:101C30001D99139848430890089800F50040000C3F
:101C4000089008984043089008F50040000C029066
:101C50000298C01C0621B0FBF1F002900298C0EB84
:101C6000C00002900298B0F5803F02D33748079039
:101C70000DE008F103000621B0FBF1F8C8EBC8083D
:101C800008F50040000C079007984043079040F289
:101C90002710059005984043059041F204100490E8
:101CA0000498083000090490DDE90410401A0590FA
:101CB000059800EB400000010690069800F50050E2
:101CC000800B0690DDE9071044181F9804EB5004C0
:101CD0001F98B4FBF0F4A403069804EB5004069894
:101CE000B4FBF0F46C4304F5FA704FF47A71B0FB76
:101CF000F1F4240104F5FA70B0FBF1F44FF040095F
:101D0000B9F1000F05D00AEB5900B0FBF9F00390D0
:101D100001E000200390039801F06AF9834624B1A2
:101D20000AEB5400B0FBF4F600E00026304601F068
:101D30005FF906462098C0F800B0B34501D9209855
:101D40000660009814B0BDE8F08F00000000F0FFBE
:101D5000E0B5064640F277634FF4106202FB01F5EE
:101D6000A5FB0307E0BD00002DE9FF4FABB0054622
:101D700088464FF448702A904FF4167029904FF41B
:101D8000C810289041F25C202790B84826904FF464
:101D900070402590B6482490B64823904FF40040F8
:101DA00022904FF44810219040F27760209000BFBD
:101DB000286A15904FF47A71D8F810004843000C47
:101DC0001690D8F80C000C900DAA4146284601F058
:101DD000A1F815AA4146284601F0B0F813904FF437
:101DE0007A710D9800FB01F707F50040070C159874
:101DF000484314901498B0F5481F02D94FF4481086
:101E000014901398002849D1DC2040591E90E020FE
:101E1000405D06902846069A1E9900F02DF909901B
:101E2000E42040591D90E820405D05902846059A21
:101E30001D9900F021F9089003200A9006980828BF
:101E400001D102200A900A98C002DDE9081211446B
:101E500048430790079800F5FA704FF47A71B0FB89
:101E6000F1F0079040F27761079848430790079890
:101E700000F5FA704FF47A71B0FBF1F007900D980D
:101E80008030000A0D9007990D9848431F901F98C5
:101E90008030000A1F900D9800020D90139818B121
:101EA00013982FB0BDE8F08F4FB970492D9801609D
:101EB0000846C5F8400100212E980160D4E01F9823
:101EC00008B901201F904FF448701B901698000429
:101ED000B0FBF7F66648864200D906464FF4167006
:101EE00046431F9901EB4101880001F081F8400051
:101EF0001A90B8F808005F494843199014984000B8
:101F0000C0EB074000F5FA704FF47A71B0FBF1F0C6
:101F10001290481000EB0740B0FBF1F111911298BC
:101F200000021290DDE91112B2FBF1F0002801DB92
:101F3000014600E04142179117980002179098F867
:101F4000180010B14FF4803410E041F25C21199870
:101F5000B0FBF1F41798C0F58030444304F500401D
:101F6000040C04F5803464086443A40B1B9804FB40
:101F700000FA0AF500404FEA104A0AFB0AFAB34693
:101F80000BF500404FEA104B0BFB0BFB0AEB0B0071
:101F90001090109801F02CF80F900F9800040F90FB
:101FA0000F9832306421B0FBF1F11A98B1FBF0F9CF
:101FB00040F6B53009FB00F941F288308144400019
:101FC000B9FBF0F9B9F5704F01D94FF47049DDE96B
:101FD0001D10084400F5FA704FF47A71B0FBF1F06F
:101FE0001C904FF4C8111C9801EB5001B1FBF0F0AC
:101FF000049000F0FDFF0B900B9800020B900B98E3
:1020000000F5FA704FF47A71B0FBF1F00B9009FB18
:1020100009FA0B9800FB00FB0AEB0B0000F0E8FF4D
:102020000E904FF47A710E98484318902FB11F9874
:1020300018B10E491898884201D90C4818902D996A
:10204000189808602D980068C5F84001079A1B99F8
:102050002E982346CDE90162009103902846DDE9E0
:102060000C21FFF7AFFD139013981AE7AE878F028C
:10207000666666009A9906002DE9F04307460C460D
:10208000154600BF29463846FFF762FE814609F52E
:10209000FA704FF47A71B0FBF1F60846604300EB3A
:1020A0005600B0FBF6F84046BDE8F0832DE9F0435A
:1020B00006460C461546002729463046FFF748FEDF
:1020C000804608F5FA704FF47A71B0FBF1F904FB21
:1020D00009F000F5FA70B0FBF1F73846BDE8F0837F
:1020E0002DE9F04704460D461646002702212046FA
:1020F00000F0DEF80746AFB994F8F180B8F1000FB0
:1021000006D10020287009A0007886F8400009E078
:10211000F220005D287004F1F309494606F1400001
:10212000FEF726F83846BDE8F08700000000000002
:1021300001460020CAB20B0A9A40501C7047014663
:1021400000204A1C5206100E7047F8B506460024BF
:10215000002283213046FFF7EAFC0443B4B900258E
:1021600000BF6A4683213046FFF70FF904469DF809
:10217000000000B904B103E06D1CB5F5FA6FF0D3AF
:1021800000BFB5F5FA6F01D36FF006040122832179
:102190003046FFF7CCFC04432046F8BD10B501469D
:1021A00000200022002361B14A1E02E052085C1C9C
:1021B000A3B222F0FF04002CF8D1144663F31F24CD
:1021C000A0B210BD014600200122C2EB6102D0B2D4
:1021D000704700007CB506460C460025224669463D
:1021E0003046FFF77DFF0546002D26D19DF8000003
:1021F00020B91EA12046FDF7BBFF19E09DF80000A5
:10220000222808DC9DF80000202804D01AA12046CE
:10221000FDF7AEFF0CE09DF80000272804DA19A1B5
:102220002046FDF7A5FF03E019A12046FDF7A0FF1A
:102230001DA104F12000FDF79BFF35B904F16002F8
:10224000C0213046FFF7A1F805466DB901AAC221A9
:102250003046FFF79AF80546012084F861009DF8A2
:102260000400000984F8620028467CBD564C3533D2
:102270004C30582054533000564C35334C30582095
:1022800054533100564C35334C305820545332009F
:10229000564C35334C305820455331206F72206CEA
:1022A0006174657200000000564C35334C305800A4
:1022B0002DE9F04F93B005460F46002400200E9004
:1022C0000D900C900B90824683464FF4C8500A90B4
:1022D0004FF00009002009900290F020465D072E83
:1022E0007ED0012280212846FFF721FC04430122F1
:1022F000FF212846FFF71BFC044300221146284615
:10230000FFF715FC04430622FF212846FFF70FFCC8
:10231000044312AA83212846FFF737F804439DF8A7
:10232000480040F0040283212846FFF700FC0443E4
:102330000722FF212846FFF7FAFB044301228121EF
:102340002846FFF7F4FB04432846FFF711F804433F
:10235000012280212846FFF7EAFB044307F0010031
:10236000002855D006F00100002851D16B2294219D
:102370002846FFF7DCFB04432846FFF7E6FE04434C
:1023800011AA90212846FFF716F804431198C0F3CC
:1023900006200E901198C0F3C0300D902422942195
:1023A0002846FFF7C4FB04432846FFF7CEFE04434C
:1023B00011AA90212846FEF7FEFF04431198000E53
:1023C0008DF800001198000C8DF801001198000A9A
:1023D0008DF802001198C0B28DF80300252200E0AC
:1023E000A4E194212846FFF7A2FB04432846FFF707
:1023F000ACFE044311AA90212846FEF7DCFF0443FB
:102400001198000E8DF804001198000C8DF805004D
:1024100007F0020002287DD106F002000028FAD160
:10242000022294212846FFF782FB04432846FFF747
:102430008CFE044310AA90212846FEF7A6FF044311
:102440007B2294212846FFF772FB04432846FFF7BE
:102450007CFE04430FAA90212846FEF796FF044312
:10246000772294212846FFF762FB04432846FFF7B2
:102470006CFE044311AA90212846FEF79CFF0443FA
:102480007F21119801EA50608DF810001198C0F377
:1024900086408DF811001198C0F3C6208DF8120007
:1024A0001198C0F306108DF8130011980007400E24
:1024B0001290782294212846FFF739FB04432846DE
:1024C000FFF743FE044311AA90212846FEF773FF4D
:1024D00004437F21119801EA50709DF84810084488
:1024E000C0B28DF814001198C0F386508DF8150015
:1024F0001198C0F3C6308DF816001198C0F306206D
:102500008DF817001198C0F346008DF81800119847
:10251000C00700E05FE0400E129079229421284627
:10252000FFF705FB04432846FFF70FFE044311AAFB
:1025300090212846FEF73FFF04437F21119801EACE
:1025400090609DF848100844C0B28DF819001198A9
:10255000C0F3C6408DF81A001198C0F306308DF80C
:102560001B001198C0F346108DF81C001198C0068E
:10257000400E12907A2294212846FFF7D8FA04439D
:102580002846FFF7E2FD044311AA90212846FEF7F2
:1025900012FF04437F21119801EA90709DF84810C2
:1025A0000844C0B28DF81D001198C0F3C6508DF8D4
:1025B0001E001198C0F306408DF81F001198C0F35B
:1025C00046208DF820001198C0F386008DF8210078
:1025D00000208DF8220007F00400042873D106F0D3
:1025E000040000286FD17B2294212846FFF79FFA30
:1025F00004432846FFF7A9FD04430CAA902128466E
:10260000FEF7D9FE04437C2294212846FFF78FFA77
:1026100004432846FFF799FD04430BAA902128465E
:10262000FEF7C9FE0443732294212846FFF77FFA80
:1026300004432846FFF789FD044311AA9021284648
:10264000FEF7B9FE044311980006000C09907422AD
:1026500094212846FFF76BFA04432846FFF775FDDF
:10266000044311AA90212846FEF7A5FE04431199C0
:10267000099840EA11600990752294212846FFF7D5
:1026800056FA04432846FFF760FD044311AA90213F
:102690002846FEF790FE0443119800064FEA1049C1
:1026A000762294212846FFF742FA04432846FFF792
:1026B0004CFD044311AA90212846FEF77CFE0443FA
:1026C000119849EA1069002281212846FFF72FFA64
:1026D00004430622FF212846FFF729FA044312AAE1
:1026E00083212846FEF751FE04439DF8480000F080
:1026F000FB0283212846FFF71AFA04430122FF2137
:102700002846FFF714FA0443012200212846FFF768
:102710000EFA04430022FF212846FFF708FA04437B
:10272000002280212846FFF702FA0443002C60D1E2
:10273000072E5ED007F00100A8B106F0010090B9A5
:102740000E9885F813010D9885F81401A04607E04E
:102750001DF8081005F5957000F8081008F101083B
:10276000B8F1060FF4DB07F00200022811D106F0E1
:10277000020070B99DF84010F12041559DF83C10C1
:10278000F220415505F1F300039004A90398FDF7E9
:10279000EFFC07F00400042824D106F0040008BB75
:1027A0004FF48C700C994151001D0B9941510998BF
:1027B000400202904FF49071029848514FF0000B84
:1027C000B9F1000F0CD00A98A9EB000A4FF47A7007
:1027D0000AFB00F04FEA101BCBF100000FFA80FB60
:1027E000C5F80CB046EA070012909DF84810F0209A
:1027F0004155204613B0BDE8F08F2DE9F04F87B06A
:1028000006460C4600254FF4FA60039040F27677B6
:102810004FF470784FF4257940F24E2A40F2B22BF3
:102820004846029040F2262001900020009007EBDD
:102830000800206005A93046FEF7B6FC05461DB12C
:10284000284607B0BDE8F08F9DF8140028B99DF820
:10285000150010B99DF8160008B303AA02213046EE
:1028600001F00AFF0546D5B99DF8140020B1206893
:1028700003995144084420609DF8160038B120683F
:1028800003995944022202FB0100206007E09DF8F1
:10289000150020B12068039949440844206075B9A7
:1028A0009DF8170058B16A460321304601F0E4FE56
:1028B00005462168009A029810440844206075B9C2
:1028C0009DF8180058B104AA0421304601F0D4FE46
:1028D00005462168049A01981044084420600DB907
:1028E000216871612846ACE72DE9F84306460C469D
:1028F000002540F2FF774FF480586A462821304681
:10290000FEF76FFD0546BDB9BDF80000C0F30B0032
:102910000090BDF80000B84208DDBDF80000A0EB53
:10292000080000B2FA214843206005E0BDF800002D
:1029300000B2FA21484320602846BDE8F883000031
:1029400070B504460D460026204614F1080F54D0F9
:102950001DDC10F1140F64D00CDC10F1630F77D084
:1029600010F1320F6FD010F1280F64D010F11E0F4C
:1029700073D15BE010F10C0F30D010F10B0F4BD086
:1029800010F10A0F43D010F1090F66D13AE0C01DD3
:10299000082862D2DFE800F02C271D18130E090466
:1029A00032A12846FDF7E4FB5CE033A12846FDF7A1
:1029B000DFFB57E037A12846FDF7DAFB52E03AA1EA
:1029C0002846FDF7D5FB4DE03BA12846FDF7D0FB9F
:1029D00048E040A12846FDF7CBFB43E042A1284652
:1029E000FDF7C6FB3EE046A12846FDF7C1FB39E0F6
:1029F00046A12846FDF7BCFB34E048A12846FDF778
:102A0000B7FB2FE04CA12846FDF7B2FB2AE04FA10F
:102A10002846FDF7ADFB25E051A12846FDF7A8FBB0
:102A200020E056A12846FDF7A3FB1BE059A128464C
:102A3000FDF79EFB16E05DA12846FDF799FB11E02E
:102A400006E000E009E05FA12846FDF791FB09E000
:102A500063A12846FDF78CFB04E067A12846FDF73B
:102A600087FB00BF00BF304670BD00004E6F2045A1
:102A700072726F720000000043616C69627261746F
:102A8000696F6E205761726E696E67204572726F52
:102A9000720000004D696E20636C6970706564207F
:102AA0006572726F72000000556E646566696E65CE
:102AB00064206572726F7200496E76616C69642081
:102AC000706172616D6574657273206572726F7288
:102AD000000000004E6F7420737570706F72746523
:102AE00064206572726F7200496E746572727570DF
:102AF00074206E6F7420436C656172656400000021
:102B000052616E6765206572726F720054696D65FF
:102B1000206F7574206572726F7200004D6F64656E
:102B2000206E6F7420737570706F727465642065A9
:102B300072726F72000000004275666665722074E2
:102B40006F6F20736D616C6C000000004750494F3F
:102B5000206E6F74206578697374696E6700000079
:102B60004750494F2066756E6374206E6F742073F2
:102B70007570706F7274656400000000436F6E744E
:102B8000726F6C20496E7465726661636520457270
:102B9000726F7200496E76616C696420436F6D6D6F
:102BA000616E64204572726F72000000446976693C
:102BB00073696F6E206279207A65726F2045727238
:102BC0006F7200005265666572656E6365205370B2
:102BD000616420496E6974204572726F7200000052
:102BE0004E6F7420696D706C656D656E74656420E0
:102BF0006572726F72000000556E6B6E6F776E209B
:102C00004572726F7220436F646500002DE9FF4FBB
:102C10008FB007469946DDE91CA6002500200E90DE
:102C20000D900C900B900A9009900890002402904F
:102C300001901098C0F3C3045CB1052C09D0072C97
:102C400007D00C2C05D00D2C03D00E2C01D00F2C4E
:102C500002D14FF0010B01E04FF0000B2DB90BAA90
:102C600000213846FEF729F905469DF82C00D0B121
:102C7000CDB901AB07AA51463846FFF775F80546AE
:102C800015B90198AAF80A006DB906AA00213846BC
:102C9000FEF721F90546069828B1DDE906108842BD
:102CA00001D901200E902DB909AA02213846FEF75C
:102CB00004F905469DF8240050B34DBB05AA022136
:102CC0003846FEF708F905462DB90122FF2138469E
:102CD000FEF72DFF05462DB902AAB6213846FEF7AC
:102CE00080FB05462DB90022FF213846FEF71FFF65
:102CF0000546BDF80800400200900098C7F848015A
:102D0000059828B105990098884201D901200D90B5
:102D10002DB908AA03213846FEF7CFF805469DF8DD
:102D20002000C8B1C5B9B9F1000F02D1002003904D
:102D300004E011980002B0FBF9F0039004AA03210B
:102D40003846FEF7C8F80546049828B1DDE90301C6
:102D5000884201D201200C9035BBBBF1010F02D19A
:102D6000FF20307028E0012C03D0022C01D0032C6E
:102D700002D1052030701FE0062C01D0092C02D1B1
:102D80000420307018E0082C04D00A2C02D00D98D2
:102D9000012802D1032030700EE0042C02D00C98E0
:102DA000012802D10220307006E00E98012801D1DE
:102DB000307001E000203070307810B90020AAF89F
:102DC0000A000AAA01213846FEF777F8054675BBC6
:102DD0009DF82C0010B10E98012802D14FF0010887
:102DE00001E04FF0000887F82E80042C02D09DF8F7
:102DF000280010B94FF0010801E04FF0000887F8F3
:102E00002F809DF8240010B10D98012802D14FF0B9
:102E1000010801E04FF0000887F830809DF820009D
:102E200010B10C98012803D14FF0010802E003E033
:102E30004FF0000887F83180284613B0BDE8F08FC6
:102E400070B504460D460026062C22D2DFE804F0B9
:102E500003080D12171C13A12846FDF789F91DE080
:102E600014A12846FDF784F918E016A12846FDF7BD
:102E70007FF913E017A12846FDF77AF90EE019A1B2
:102E80002846FDF775F909E01AA12846FDF770F903
:102E900004E01CA12846FDF76BF900BF00BF3046D7
:102EA00070BD000052616E67652056616C696420D8
:102EB000202000005369676D61204661696C202005
:102EC000202000005369676E616C204661696C20A8
:102ED000202000004D696E2052616E6765204661BA
:102EE000696C00005068617365204661696C202040
:102EF0002020000048617264776172652046616934
:102F00006C2000004E6F2055706461746520202095
:102F100020200000F8B507460D4614460026E86854
:102F200020606A462946384600F008F806461EB971
:102F300020680099084420603046F8BD2DE9F84328
:102F400005460E46144600270020206069462846A4
:102F5000FEF793F907465FB99DF8000040B1D5F838
:102F60002080B08A00FB08F909F18000000A206087
:102F70003846BDE8F883F8B507460C4615460026E6
:102F800014B1012C0ED106E06A4650213846FEF7F6
:102F9000FCF9064609E06A4670213846FEF7F5F965
:102FA000064602E06FF0030600BF00BF26B99DF899
:102FB0000000FFF7C4F828703046F8BD08B50121BD
:102FC0000420FDF7B3FB0C20ADF8000010208DF8B5
:102FD000030003208DF8020069460448FDF772F9EA
:102FE0000C210248FDF7F9F908BD00000008014076
:102FF000024600204FF0804100E089089142FCD851
:1030000009E04318934204D84318D21A01EB500048
:1030100000E0400889080029F3D170472DE9FF5FDF
:1030200006460D4600200390002463E02F5D641CDB
:10303000FF2F44D1285D0290641C029830B1012812
:1030400011D002281CD0032834D126E015F80480C2
:10305000641C15F80490641C09EB08201FFA80FA20
:10306000A6F834A12AE015F80480641C15F8049031
:10307000641C09EB08201FFA80FAA6F836A11DE0AF
:1030800015F80480641C15F80490641C09EB0820F2
:103090001FFA80FAA6F838A110E015F80480641C25
:1030A00015F80490641C09EB08201FFA80FAA6F8B2
:1030B0003CA103E06FF00300039000BF1AE0042F6F
:1030C00015DC285D0190641C4FF0000B05E0285DC5
:1030D0000DF80B00641C0BF1010BBB45F7DB3B4605
:1030E0006A4630460199FEF74EFD039002E06FF00C
:1030F00003000390285D10B10398002896D0039830
:1031000004B0BDE8F09FF8B506460024002000900A
:10311000002500BF69463046FDF738FF044604B17C
:103120000FE09DF80000012800D10AE06D1CB5F504
:10313000FA6F02D36FF0060403E03046FEF718F989
:10314000E8E700BF2046F8BD2DE9F04F85B0054601
:103150000E4690461F460024A146A246A3460FB144
:1031600095F83091022201212846FEF7E0FC044642
:1031700024B90021284600F094F904468CB9B8F12E
:10318000010F0ED10120002104AA5B46CDE90026E3
:10319000CDE9021052460146284600F037FA0446AF
:1031A00001E0002030704CB947B14A460121284661
:1031B000FEF7BDFC04460CB985F83091204605B0F9
:1031C000BDE8F08F2DE9F0470546894616461F46B3
:1031D0000024A04695F8308100233A464946284607
:1031E00000F07FF9044634B900233A4631462846B8
:1031F000FFF7AAFF044644B9424601212846FEF7DC
:1032000096FC04460CB985F830812046BDE8F0876D
:103210002DE9F74F94B0044600254FF0B40B03207E
:1032200011902C201090002600200F900E904FF44B
:103230002067804681464FF0060A0C900B900A905A
:103240000990089007900690B4F83C7100BF06E022
:10325000002104F5927000F8091009F10109D14527
:10326000F6D30122FF212046FEF761FC05462DB969
:1032700000224F212046FEF75AFC05462DB92C228C
:103280004E212046FEF753FC05462DB90022FF21B2
:103290002046FEF74CFC05462DB95A46B62120467D
:1032A000FEF745FC05462DB9002280212046FEF799
:1032B0003EFC054635B9002308AA09A92046FFF7B8
:1032C00081FF05468DB900260F96B0460FA91198CB
:1032D000CDE900ABCDE902600491414604F592735B
:1032E0009A1D204601F00AF90546002D44D10F9E93
:1032F0000DA9204601F062FB0546002D3AD1BDF82C
:103300003400B84236DDA94606E0002104F592708B
:1033100000F8091009F10109D145F6D300E0761C47
:103320000BEB060001F03AFA10B910988642F6D37A
:103330004FF001080FA91198CDE900ABCDE902606B
:103340000491414604F592739A1D204601F0D6F887
:1033500005468DB90F9E0DA9204601F02FFB0546AD
:1033600055B9BDF83400B84206DD01200690119829
:10337000079001E04FF00008002D7CD1BDF834002B
:10338000B84278DA08F0FF0006901198079052468C
:1033900004F5927112A8FCF7C7FEBDF83410C81BE3
:1033A000002801DB014600E041420B9100200A9019
:1033B0005DE00EAB3246514604F5957001F01CF904
:1033C0000E98401C10B96FF0310553E00E990BEBCD
:1033D000010001F0E3F9404502D001200A9049E0E4
:1033E0000798401C07900E9E3246514604F5927095
:1033F00001F0DAF8054635B9761C04F592712046DD
:1034000001F052FB054605B134E00DA9204601F05C
:10341000D5FA054605B12DE0BDF83410C81B0028CB
:1034200001DB014600E041420C91BDF83400B84296
:1034300015DDDDE90B1088420DD912A9204601F0F7
:1034400033FB0546524612A904F59270FCF76CFE58
:103450000798401E079001200A9008E00BE00C98A6
:103460000B90524604F5927112A8FCF75DFE0A9883
:1034700000289ED000BF85B9159907980860169955
:1034800006980870012184F815111598017884F8C0
:1034900013111698017884F81411284617B0BDE866
:1034A000F08F70B506460D46002434B945F0010290
:1034B00000213046FEF73BFB04461CB93046FFF7BF
:1034C00022FE044624B900213046FDF72DFB0446B8
:1034D0002CB9002211463046FEF729FB044620464F
:1034E00070BD2DE9F04F85B005460E4690461F464B
:1034F0000024A146A246A346002004900FB195F8EF
:103500003091012211462846FEF711FB044624B9EA
:1035100040212846FFF7C5FF044684B9B8F1010FE2
:103520000DD10020012104AA5B46CDE90062CDE95E
:1035300002105246284600F069F8044601E00020D7
:1035400030704CB947B14A4601212846FEF7EFFAE0
:1035500004460CB985F83091204605B0BDE8F08FDF
:103560002DE9F04104460D46164600270123324658
:103570002946204600F021F807463846BDE8F0818C
:10358000F8B505460E461446002704236A46314620
:10359000284600F012F807469DF8000000069DF846
:1035A000011000EB01409DF8021000EB01209DF896
:1035B0000310084420603846F8BD2DE9F041064666
:1035C0000F4614461D464FF0000823462A4639464A
:1035D000304600F0C1FB08B14FF001084046BDE89D
:1035E000F081F8B505460E461446002702236A46C8
:1035F00031462846FFF7E1FF07469DF801009DF898
:10360000001000EB012020803846F8BD2DE9F84F6E
:1036100080460D4691469A46DDE90BB60D9F002483
:10362000002000900122FF214046FEF780FA04436B
:10363000002211464046FEF77AFA04430022FF2199
:103640004046FEF774FA044375B12EB1CB214046D3
:103650000A9AFDF79AFE0443AFB16A46EE2140464E
:10366000FDF793FE04430EE02EB14A46CB214046BF
:10367000FEF75DFA044337B153468022EE214046FF
:10368000FEF72CFA04430122FF214046FEF74FFAD1
:103690000443012200214046FEF749FA0443002278
:1036A000FF214046FEF743FA04439DF8000000F076
:1036B000EF008BF800002046BDE8F88F2DE9F04FB1
:1036C00089B080460F4600264FF4FA60069040F21B
:1036D00076794FF4707A4FF4257B40F24E200590B6
:1036E00040F2B22004905846039040F22620029007
:1036F0000020019044F62060009000250098874249
:1037000004D22E1F304609B0BDE8F08F09EB0A0045
:103710003C1A07A94046FDF747FD0646002E3BD15F
:103720009DF81C0030B99DF81D0018B99DF81E00C9
:10373000002831D006AA0221404600F09DFF06462F
:103740000EB13046DFE79DF81C0040B1DDE9050110
:103750000D18A54201D2641B01E06FF003060EB103
:103760003046D0E79DF81E0050B1069904980844F1
:103770004500A54201D2641B0EE06FF003060BE08A
:103780009DF81D0040B1069800EB0B05A54201D243
:10379000641B01E06FF003060EB13046B3E79DF8FD
:1037A0001F0070B101AA0321404600F065FF0646E4
:1037B000019903980D18A54201D2641B01E06FF036
:1037C000030666B99DF8200048B10298241A2246E3
:1037D0000421404601F074F90646C8F814703046DA
:1037E00091E72DE9F04F87B004468946164600253B
:1037F00000274FF0B40A4FF0060B2C200690012250
:10380000FF212046FEF793F905462DB900224F21EE
:103810002046FEF78CF905462DB92C224E21204674
:10382000FEF785F905462DB90022FF212046FEF757
:103830007EF905462DB95246B6212046FEF777F9A6
:1038400005464FF0000806E0002104F5927000F8EC
:10385000081008F10108D845F6D34EB100E07F1CEE
:103860000AEB070000F09AFF10B906988742F6D3DA
:1038700005A804F592739A1D3146CDE900BACDE949
:1038800002790490204600F039FE054635B9012141
:1038900084F8151184F8139184F81461284607B050
:1038A000BDE8F08F2DE9F04F87B007460E4615466C
:1038B00000244FF00C094FF0120A4FF0080B0E20B5
:1038C000059000200190284605EBD0714910A5EB2A
:1038D000410109B1241F10E036B94D4501DB5545C2
:1038E00002DD6FF0030408E0012E06D15D4502DB26
:1038F0000598854201DD6FF003041CB1204607B036
:10390000BDE8F08FDEBB0C2D0CD1182257213846B4
:10391000FEF70DF90446082256213846FEF707F94E
:103920000446E2E00E2D0CD1302257213846FEF736
:10393000FEF80446082256213846FEF7F8F80446F9
:10394000D3E0102D0CD1402257213846FEF7EFF876
:103950000446082256213846FEF7E9F80446C4E03A
:10396000122DDED1502257213846FEF7E0F80446EA
:10397000082256213846FEF7DAF80446B5E0FFE79C
:10398000012ECED1082D2AD1102248213846FEF72B
:10399000CEF80446082247213846FEF7C8F8044608
:1039A000022232213846FEF7C2F804430C223021AD
:1039B0003846FEF7BCF804430122FF213846FEF7E3
:1039C000B6F80443302211463846FEF7B0F80443F7
:1039D0000022FF213846FEF7AAF8044385E00A2DAD
:1039E0002AD1282248213846FEF7A1F804460822A9
:1039F00047213846FEF79BF8044603223221384619
:103A0000FEF795F80443092230213846FEF78FF877
:103A100004430122FF213846FEF789F8044320229F
:103A200030213846FEF783F804430022FF21384650
:103A3000FEF77DF8044358E00C2D2AD138224821A6
:103A40003846FEF774F80446082247213846FEF748
:103A50006EF80446032232213846FEF768F8044324
:103A6000082230213846FEF762F804430122FF2184
:103A70003846FEF75CF80443202230213846FEF732
:103A800056F804430022FF213846FEF750F804435D
:103A90002BE00E2D29D1482211463846FEF747F873
:103AA0000446082247213846FEF741F8044603221F
:103AB00032213846FEF73BF80443072230213846CE
:103AC000FEF735F804430122FF213846FEF72FF8B0
:103AD0000443202230213846FEF729F8044300220F
:103AE000FF213846FEF723F80443002C47D128462F
:103AF000FEF768FB069016B1012E3CD124E003AA24
:103B00000321384600F0B8FD04462CB902AA022170
:103B1000384600F0B1FD04462CB950213846069ACB
:103B2000FEF705F804462CB903213846039A00F045
:103B3000C7FF04462CB902213846029A00F0C0FFA4
:103B40000446E820C55519E004AA0421384600F0CF
:103B500093FD04462CB970213846069AFDF7E7FF1D
:103B600004462CB904213846049A00F0A9FF044603
:103B7000E020C55502E06FF0030400BF00BF34B978
:103B8000D7F8148041463846FDF7D6FD044634B9CF
:103B90000123002201A93846FFF7D6FA0446204641
:103BA000ADE6F7B504460D460026012302AA2946D4
:103BB000204600F003F806463046FEBD2DE9F041F0
:103BC00006460F4614461D464FF0000823462A4677
:103BD0003946304600F0B0F908B14FF001084046D0
:103BE000BDE8F081F8B506460C46154600272812B8
:103BF0008DF80000E8B28DF80100204604EBD0718A
:103C00004910A4EB410101290ED101236A46214646
:103C10003046FFF7D3FF074601236A462146304668
:103C2000FFF7CCFF074606E002236A4621463046EE
:103C3000FFF7C4FF07463846F8BD000010B5002066
:103C40000F4908600F48006820F470600D49086053
:103C50000846006840F44070086000200A49C1F836
:103C60008801022000F024FC0120054908600220A0
:103C700000F01EFC00200449C1F88C0110BD0000BA
:103C80008C012142000801400000214210B50020B3
:103C90000F4908600F48006820F470600D49086003
:103CA0000846006840F44070086001200A49C1F8E5
:103CB0008801022000F0FCFB012005490860022079
:103CC00000F0F6FB00200449C1F88C0110BD000093
:103CD0008C012142000801400000214270B50024FF
:103CE0001A48006820F470601849086008460068A7
:103CF00040F400600860012015490860042000F0CD
:103D0000D7FB00251AE06006040E00201049091DAB
:103D10000860042000F0CCFB01200E49C1F88C01A2
:103D2000042000F0C5FB0A488038006808B144F060
:103D30000104042000F0BCFB681CC5B2082DE2DBC6
:103D400000200349091D0860204670BD000801409D
:103D500088012142000021422DE9F04106460F462C
:103D600014461D4600F06AF8304600F02DF800F0C9
:103D7000B1F820B100F088F80120BDE8F0813846A4
:103D800000F022F800F0A6F8012000F06BFB00F034
:103D900055F846F0010000F017F800F09BF80CE031
:103DA000FFF79CFF2870012C02D1FFF76FFF01E0A5
:103DB000FFF744FF6D1C601E84B2002CF0D100F0B0
:103DC00063F80020D9E7000070B504461848006881
:103DD00020F47060164908600846006840F440709E
:103DE000086000201349086000251EE0E00920B1AA
:103DF00001201049091F086003E000200D49091F38
:103E000008606006040E022000F052FB0120094900
:103E10000860022000F04CFB00200749C1F88C012B
:103E2000022000F045FB681CC5B2082DDEDB70BD2A
:103E3000000801408C0121420000214210B50F48CA
:103E4000006820F470600D4908600846006840F47E
:103E50004070086001200A4908600A49C1F88C01D5
:103E6000042000F025FB002005490860042000F034
:103E70001FFB00200349C1F88C0110BD0008014060
:103E8000880121420000214210B50F48006820F44B
:103E900070600D4908600846006840F44070086092
:103EA00000200A4908600A49C1F88801042000F08E
:103EB000FFFA0120054908600549C1F8880104207E
:103EC00000F0F6FA10BD0000000801408C0121420C
:103ED0000000214210B500241448006820F47060EE
:103EE000124908600846006840F40060086001203C
:103EF0000F49086000F0DCFA01200E49C1F88C017E
:103F000000F0D6FA07E0601CC4B2FA2C03DDFFF71C
:103F1000BBFF012010BD0648803800680028F2D1A0
:103F20000349091D086000BFF4E7000000080140D4
:103F300088012142000021422DE9F04107460D464B
:103F400016461C46FFF77AFF3846FFF73DFFFFF79E
:103F5000C1FF20B1FFF798FF0120BDE8F08128469E
:103F6000FFF732FFFFF7B6FF05E014F8010BFFF78C
:103F70002BFFFFF7AFFF301EA6F101018EB2F4D187
:103F8000FFF782FF0020E8E70FB4054B10B503A947
:103F9000044A029800F018F810BC5DF814FB000009
:103FA000DD4500083000002002E008C8121F08C1EB
:103FB000002AFAD170477047002001E001C1121FAA
:103FC000002AFBD1704700002DE9FF4F8DB00F464E
:103FD0000546002606E025280BD0DDE90F129047A4
:103FE0006D1C761C28780028F5D111B03046BDE84C
:103FF000F08F0024A246A1460122E94900E00443D3
:1040000015F8013F203B02FA03F00842F7D1287867
:104010002A2810D06FF02F022878A0F1300109294A
:1040200014D80AEB8A0102EB410144F0020400EBD0
:10403000010A6D1CF0E701CF5FEA000A03D544F4E2
:104040000054CAF1000A44F002046D1C28782E289E
:1040500017D115F8010F44F004042A280ED06FF090
:104060002F022878A0F1300109290AD809EB89012B
:1040700002EB410100EB01096D1CF2E757F8049BCC
:104080006D1C28786C280FD006DC4C2817D06828C7
:104090000DD06A2814D104E0742810D07A280FD1EA
:1040A0000DE044F400140AE044F4801401E044F408
:1040B00040146978814202D104F580146D1C6D1C96
:1040C00028786E281ED00CDC632830D004DC002851
:1040D0008BD0582811D19FE0642867D069280CD173
:1040E00064E073282DD004DC6F2872D0702804D1CE
:1040F00094E075286ED078286DD0DDE90F129047D6
:10410000761C4BE1C4F30250022806D0032809D0E4
:10411000042801CF09D0066040E101CFF117C0E9C2
:1041200000613BE101CF068038E1067036E117F807
:10413000040B8DF8000000208DF80100EB460120F3
:1041400003E057F804BB4FF0FF3061074FF0000168
:1041500002D40DE008F10101884649450FDA804597
:10416000F8DB1BF808100029F4D108E008F1010180
:1041700088468142FADB1BF808100029F6D1DDE9F8
:104180000F23AAEB08008146214600F031F93044A4
:1041900000EB080604E0DDE90F121BF8010B904765
:1041A000B8F10108F7D221464846F2E00A21C4F3EB
:1041B00002524FF0000B0891022A04D001CFC11720
:1041C000032A09D00AE0FF1D27F00707F7E80201DC
:1041D00008E02CE01EE01FE000B2C117042A01D164
:1041E00040B2C117021E71F1000206DA0023D0EBC3
:1041F000030063EB01012D2202E0220504D52B22EE
:104200008DF82420012203E0E20701D02022F7E705
:10421000904653E00A210BE0102109E010214FF0F5
:10422000000B44F004044FF00809089103E0082152
:104230004FF0000B0891C4F30252022A04D001CFC0
:104240000021032A06D006E0FF1D27F00707F7E844
:10425000020103E080B2042A00D1C0B24FF000088E
:1042600022072BD52A78702A07D0DDF820C08CF0E1
:10427000100C5CEA0B0C05D00EE040228DF82420D7
:10428000012208E050EA010306D030238DF82430E3
:104290008DF8252002229046089B83F0080353EAFC
:1042A0000B030BD150EA010201D1620706D530227F
:1042B0008DF824204FF00108A9F101092A78582A25
:1042C00004D038A20B9208AA0A920BE03AA2F9E7AE
:1042D0005B46089AFBF755FF0B9B9B5C0A9A521EA4
:1042E0000A92137050EA0102F2D10A98ADEB000075
:1042F00000F1200B600702D524F4803401E04FF078
:104300000109D94502DDA9EB0B0000E0002000EB1C
:104310000B0141440890AAEB010AE00306D4DDE951
:104320000F232146504600F063F806444FF0000981
:1043300008E009A911F80900DDE90F12904709F119
:104340000109761CC145F4DBE0030CD5DDE90F2340
:104350002146504600F04CF8064404E0DDE90F1217
:1043600030209047761C0899481E08900029F5DCFB
:1043700008E00A980A990078491C0A91DDE90F12B1
:104380009047761CBBF10001ABF1010BF1DC21463B
:104390005046DDE90F2300F019F806446D1C21E6B4
:1043A000092801003031323334353637383961620B
:1043B00063646566000000003031323334353637CF
:1043C0003839414243444546000000002DE9F041A0
:1043D000044600251E461746880404D405E03946E5
:1043E0002020B0476D1C641EF9D52846BDE8F08139
:1043F0002DE9F041044600251E469046C80301D52C
:10440000302700E02027880404D505E041463846DF
:10441000B0476D1C641EF9D52846BDE8F081000048
:1044200010B56FF00400FCF76FFA0A4800680A49FB
:10443000B0FBF1F0094908700846007800EB400134
:10444000C1EBC0104FF6FF7101EAC00004490880BB
:1044500010BD00000000002000127A00280000209B
:104460002A0000200146114A12884A434FF0E023F7
:104470005A6100229A611A46126942F001021A61D9
:1044800000BF4FF0E022106900F001021AB100F401
:104490008032002AF5D04FF0E022126922F00102AA
:1044A0004FF0E0231A6100229A6170472A00002031
:1044B0000146114A12784A434FF0E0235A61002224
:1044C0009A611A46126942F001021A6100BF4FF068
:1044D000E022106900F001021AB100F48032002AD3
:1044E000F5D04FF0E022126922F001024FF0E023F4
:1044F0001A6100229A617047280000202DE9FF4FC1
:1045000085B0884691461D46DDF850B0DDF848A0DC
:104510000026CDF80CB05F46002004901FE003ABEE
:104520003A465146484600F067F80398401C10B9D7
:104530006FF0310617E0039A1399881800F02EF9EE
:10454000404502D06FF031060DE0039F3A465146D8
:10455000284600F029F87F1C0498401C0490159907
:1045600004988842DBD300BF1698076026B9294615
:10457000059800F099FA064696B901A9059800F049
:104580006FF80646002408E0285D01A9095D88420D
:1045900002D06FF0310602E0641C5445F4D300BF32
:1045A000304609B0BDE8F08FF0B503460C46002058
:1045B0000825B2FBF5F1B2FBF5F705FB1726A14282
:1045C00002D36FF0310007E05F5C4FF0010C0CFA92
:1045D00006FC47EA0C075F54F0BD000000BF054A27
:1045E000128802F04002002AF9D0C2B2014B1B1D12
:1045F0001A807047003801402DE9F04706460F4603
:1046000008214FF000094FF0FF3AC3F800A0B2FBB9
:10461000F1FCB2FBF1FA01FB1A28604619E0002414
:10462000355C604502D145FA08F544460DE005F0D9
:10463000010ABAF1000F06D04FF0010900FB014A50
:10464000C3F800A003E06D10641C8C42EFD300BFE0
:10465000401CB84202D2B9F1000FE0D0BDE8F087AB
:1046600070B505460C4606232246B0212846FCF7C5
:10467000CEFE0646304670BD2DE9F04F87B082462B
:104680000D4617460024002005908346049081467D
:104690001DB1012D01D0022D1AD106AA00215046CC
:1046A000FCF7BDFD04462CB905AA46215046FCF78F
:1046B0006CFE04469DF81400FDF73AFD1FFA80F8E1
:1046C0009DF8182041465046FDF7F0FC83465EE019
:1046D000032D21D106AA00215046FCF7A0FD044677
:1046E000002C54D106AA00215046FCF798FD044640
:1046F0002CB904AA51215046FCF773FE0446BDF8BC
:104700001000FDF715FD86B29DF818203146504681
:10471000FDF7CCFC83463AE0042D38D101A9504680
:10472000FCF742FD00269DF8070088B106AA00218B
:104730005046FCF774FD044654B904AA5121504672
:10474000FCF74FFE0446BDF81000FDF7F1FC86B201
:104750002CB906AA01215046FCF761FD04465CB95C
:1047600003AA71215046FCF73CFE0446BDF80C003C
:10477000FDF7DEFC1FFA80F9A9EB06001FFA80F9AD
:104780009DF8182049465046FDF790FC8346C7F82F
:1047900000B0204607B0BDE8F08F000001460120C0
:1047A0008A09034B53F8223003B9002070470000F8
:1047B000E00200201FB5002400250126FBF7B4FE0F
:1047C0004FF4A060FBF710FE4FF4E13000F012FA56
:1047D000FFF726FEC820FFF745FE414800F0ECFA3F
:1047E00030B140A0FFF7D0FBC820FFF73BFE41E00F
:1047F00042A0FFF7C9FB03AAC0213948FCF7C5FD59
:104800009DF80C1042A0FFF7BFFB6A46C121344857
:10481000FCF7BBFD9DF8001041A0FFF7B5FB02AA15
:10482000C2212F48FCF7B1FD9DF8081040A0FFF70A
:10483000ABFB122251212A48FDF779F9054602AA5D
:1048400051212748FCF7A1FD9DF808103CA0FFF777
:104850009BFB49F6126262212148FDF77EF905466D
:1048600001AA62211E48FCF7BCFDBDF8041038A067
:10487000FFF78AFB31461A4800F018FB18B138A040
:10488000FFF782FB02E03BA0FFF77EFB26E03E4AFB
:104890003E49134800F0A2FB054645B93B48008954
:1048A0000A2190FBF1F4204600F0E0F902E038A084
:1048B000FFF76AFB3CA201210846FBF703FF052333
:1048C0003C48028807210220FBF7DAFE3AA20C21BD
:1048D0000220FBF7F7FE6420FFF7C4FDD7E70000D6
:1048E0005C030020564C35334C30585F496E697478
:1048F000204572726F722121210D0A00564C35330A
:104900004C30585F496E6974204F4B0D0A0000000F
:104910007265676330203D20307825780A0D0000ED
:104920007265676331203D20307825780A0D0000DC
:104930007265676332203D20307825780A0D0000CB
:104940007265673531203D20307825780A0D0000EA
:104950007265673631203D20307825780A0D0000D9
:104960004D6F646520536574204572726F7221210A
:10497000210D0A004D6F646520536574204F4B2153
:1049800021210D0A000000003C030020200500202A
:104990004D6561737572656D656E74204572726FD9
:1049A000722121210D0A000044697374616E6365F0
:1049B0003A0000002A0300206D6D0000F0B587B0BA
:1049C00005460E460024002795F830712CB9C02208
:1049D00001212846FDF7ABF8044624B9694628466C
:1049E000FCF7AAFC04462CB90122FF212846FDF75A
:1049F0009EF804462CB93246B6212846FCF7F1FC55
:104A000004462CB90022FF212846FDF790F8044601
:104A100044B93A4601212846FDF789F804460CB905
:104A200085F83071204607B0F0BD000010B588B0A1
:104A3000044669462046FCF7EAFA6A46214602A087
:104A4000FFF7A2FA08B010BD4150492053746174B9
:104A500075733A202569203A2025730D0A0000005D
:104A600030B50446002000251D70052917D2DFE867
:104A700001F003070B0F1300C2F300151D7011E0C6
:104A8000C2F3C0051D700DE0C2F380051D7009E082
:104A9000C2F380151D7005E0D5091D7002E06FF0AE
:104AA000030000BF00BF30BD70B505460C460623AD
:104AB0002246B0212846FDF766F80646304670BD0E
:104AC0002DE9F04F85B006460D46174600241DB16E
:104AD000012D01D0022D23D104AA00213046FCF77C
:104AE0009EFB04469CB99DF8102039463046FDF7E0
:104AF000C3FA1FFA80FABAF5807F02DD4FF0FF0893
:104B000003E0AAF1010000F0FF08A6F8D880002C0D
:104B10006BD1424646213046FDF709F8044664E071
:104B2000032D23D1ACB904AA00213046FCF777FB52
:104B300004469DF8102039463046FDF79DFA1FFACD
:104B400080F94846FDF72AFB0390BDF80C10D820E9
:104B5000815334B9BDF80C2051213046FCF7FDFFDC
:104B60000446002C41D1E42087513EE0042D3AD187
:104B700069463046FCF718FB4FF000099DF803002A
:104B800090B104AA00213046FCF749FB04465CB909
:104B900003AA51213046FCF724FC0446BDF80C0062
:104BA000FDF7C6FA1FFA80F92CB904AA0121304694
:104BB000FCF735FB0446C4B99DF810203946304651
:104BC000FDF75AFA8346CB445846FDF7E7FA0290C0
:104BD0002CB971213046029AFCF7BFFF044624B974
:104BE000DC20875101E06FF00304204605B0BDE8EA
:104BF000F08F000010B586B00446012144F2040095
:104C0000FBF794FD4FF40070ADF8140003208DF80D
:104C1000160018208DF8170005A91248FBF752FB63
:104C20004FF48060ADF8140004208DF8170005A93A
:104C30000C48FBF747FB01940020ADF80800ADF8E5
:104C40000A00ADF80C00ADF810000820ADF80E0019
:104C500001A90548FBF7B6FE01210348FBF798FEC2
:104C600006B010BD0008014000380140F0B585B025
:104C70000646002700250024AA208DF800008DF8A4
:104C8000010001208DF802000C208DF80300200A9D
:104C90008DF804008DF80540200A8DF806008DF887
:104CA0000740200A8DF808008DF80940300E8DF875
:104CB0000A00300C8DF80B00300A8DF80C00F0B2B1
:104CC0008DF80D0001208DF80E0000208DF80F00EA
:104CD00000BF05E01DF805003844C7B2681CC5B226
:104CE000102DF7DB8DF8107000250DE01DF8051074
:104CF0000748FBF7D3FE00BF80210548FBF754FEB1
:104D00000028F9D0681CC5B2112DEFDB05B0F0BD4D
:104D1000003801402DE9F84305460E460024A04620
:104D2000374695F85C01B84202D10020BDE8F8830F
:104D3000002288212846FCF7FAFE044614B14FF001
:104D4000010825E06A46C0212846FCF74AFB0446D4
:104D500014B14FF002081BE0BDF800004EF6AA6146
:104D6000884214D139462846FCF76CFB044614B13E
:104D70004FF003080CE085F85C716A46C0212846B4
:104D8000FCF72FFB044614B14FF0040800E000BF0D
:104D900014B12046FFF74AFEB8F1000F03D0414698
:104DA00002A0FFF7F1F82046C0E700007374613AF3
:104DB000307825780D0A0000F8B50446002526460F
:104DC00001210420FBF7B2FC2020ADF800001020E8
:104DD0008DF8030003208DF8020069461E48FBF79A
:104DE00071FA522086F85C01012086F85D014FF4CB
:104DF000C870A6F85E01FEF7E1F8002017490860C8
:104E00001E20FFF72FFB01201549C1F894011E2039
:104E1000FFF728FB54213046FFF77CFF05B113E074
:104E20003046FBF7ABFE054605B10DE00220FFF76B
:104E300019FB0C493046FBF777FF054605B103E047
:104E400000200949087000BF25B12846FFF7EEFD94
:104E50002846F8BD2846FCE700080140940121429D
:104E600000002142BC040020F002002070B504467E
:104E700094F85C5100200B4908601E20FFF7F2FAFD
:104E800001200949C1F894011E20FFF7EBFA5220D6
:104E900084F85C0129462046FFF73CFF2046FBF7DB
:104EA0006DFE70BD94012142000021427FB506468F
:104EB0000D4600243046FFF7D9FF3046FCF73EFD93
:104EC000044602AA03A93046FCF7F9F9044604B1E6
:104ED00078E00220FFF7C6FA6A4601A93046FCF7DF
:104EE000FEF9044604B16DE00220FFF7BBFA002191
:104EF0003046FCF7B9FA044604B163E00220FFF73C
:104F0000B1FA012200213046FCF77AFB044604B1D5
:104F100058E00220FFF7A6FA012211463046FCF7BE
:104F20006FFB044604B14DE00220FFF79BFAC5EB8E
:104F3000C500294901EB4000426800213046FCF7DA
:104F4000C0FB044604B13DE00220FFF78BFAC5EB3D
:104F5000C500214901EB4000026801213046FCF701
:104F6000B0FB044604B12DE00220FFF77BFAC5EB4D
:104F7000C500194A02EB400081683046FCF7DCFBB3
:104F8000044604B11EE00220FFF76CFAC5EBC50031
:104F9000114901EB4000027B00213046FCF739FC4F
:104FA000044604B10EE00220FFF75CFAC5EBC50031
:104FB000094901EB4000427B01213046FCF729FC06
:104FC000044600BF2CB12046FFF730FD204604B058
:104FD00070BD2046FBE70000F10200202DE9F04102
:104FE00080460C461546002621464046FCF7A4F9AB
:104FF000064616B13046BDE8F081277E20212846BE
:10500000FBF7ABF829463846FCF70CF82089024933
:1050100008803046EFE700002A030020000000006F
:10502000000000000000000000000000000000F888
:1050300000000000000000333000000000100C06EB
:10504000100C0600000000000000000040C0784086
:10505000C0784000043F04043F040400007088FC52
:1050600008300000001820FF211E0000F008F000AA
:10507000E018000000211C031E211E0000F008881B
:10508000700000001E2123241927211010160E0085
:10509000000000000000000000000000000000E030
:1050A0001804020000000007182040000002041845
:1050B000E00000000040201807000000404080F0A1
:1050C000804040000202010F01020200000000F0D7
:1050D000000000000101011F0101010000000000AB
:1050E0000000000080B07000000000000000000020
:1050F00000000000000101010101010100000000A9
:10510000000000000030300000000000000000003F
:1051100080601804006018060100000000E010081C
:105120000810E000000F102020100F00001010F8F1
:10513000000000000020203F202000000070080830
:1051400008887000003028242221300000300888B0
:10515000884830000018202020110E000000C020D8
:1051600010F8000000070424243F240000F80888F9
:10517000880808000019212020110E0000E0108886
:1051800088180000000F112020110E0000380808B8
:10519000C83808000000003F0000000000708808C8
:1051A00008887000001C222121221C0000E0100849
:1051B0000810E0000000312222110F00000000C0A2
:1051C000C00000000000003030000000000000803F
:1051D000000000000000806000000000000080402F
:1051E0002010080000010204081020004040404048
:1051F000404040000404040404040400000810209B
:1052000040800000002010080402010000704808DF
:105210000808F0000000003036010000C030C82847
:10522000E810E0000718272423140B000000C03802
:10523000E0000000203C23020227382008F888887C
:1052400088700000203F202020110E00C030080888
:1052500008083800071820202010080008F808085F
:105260000810E000203F202020100F0008F8888858
:10527000E8081000203F20202320180008F8888824
:10528000E8081000203F200003000000C03008089C
:105290000838000007182020221E020008F8080025
:1052A0000008F808203F210101213F20000808F8EC
:1052B000080800000020203F20200000000008080F
:1052C000F8080800C08080807F00000008F888C0CF
:1052D00028180800203F20012638200008F8080080
:1052E00000000000203F20202020300008F8F800B7
:1052F000F8F80800203F003F003F200008F830C0C9
:105300000008F808203F200007183F00E0100808B8
:105310000810E0000F10202020100F0008F80808E7
:105320000808F000203F210101010000E0100808FA
:105330000810E0000F18242438504F0008F888881F
:1053400088887000203F2000030C302000708808FF
:10535000080838000038202121221C00180808F80D
:10536000080818000000203F2000000008F808008E
:105370000008F808001F202020201F00087888005F
:1053800000C83808000007380E010000F80800F8CF
:105390000008F800033C0700073C03000818688079
:1053A0008068180820302C03032C30200838C800EF
:1053B000C83808000000203F20000000100808083E
:1053C000C83808002038262120201800000000FEE0
:1053D000020202000000007F40404000000C30C08C
:1053E00000000000000000010638C00000020202B8
:1053F000FE000000004040407F000000000004026A
:105400000202040000000000000000000000000094
:105410000000000080808080808080800002020484
:10542000000000000000000000000000000080807C
:10543000808000000019242222223F2008F80080EA
:1054400080000000003F112020110E0000000080AD
:1054500080800000000E112020201100000000803C
:105460008088F800000E112020103F20000080806E
:1054700080800000001F222222221300008080F082
:10548000888888180020203F2020000000008080AD
:1054900080808000006B94949493600008F80080F2
:1054A00080800000203F210000203F20008098984D
:1054B000000000000020203F2020000000000080AD
:1054C0009898000000C08080807F000008F80000ED
:1054D00080808000203F24022D302000000808F842
:1054E000000000000020203F2020000080808080FD
:1054F00080808000203F20003F20003F808000808F
:1055000080800000203F210000203F20000080809C
:1055100080800000001F202020201F00808000804D
:105520008000000080FFA12020110E0000000080FC
:1055300080808000000E112020A0FF8080808000ED
:105540008080800020203F2120000100000080801A
:10555000808080000033242424241900008080E00F
:10556000808000000000001F2020000080800000DC
:1055700000808000001F202020103F2080808000BD
:105580000080808000010E300806010080800080CD
:10559000008080800F300C030C300F0000808000F2
:1055A000808080000020312E0E312000808080001D
:1055B0000080808080818E701806010000808080CD
:1055C000808080000021302C22213000000000006B
:1055D000807C020200000000003F4040000000000C
:1055E000FF00000000000000FF0000000002027C3D
:1055F000800000000040403F000000000006010164
:105600000202040400000000000000002C56000804
:10561000000000203C03000046020008FC5800087F
:105620003C03002024060000B83F0008500600A2FA
:105630004A040001600901020304060708090C611D
:10564000109006020406080001200501FF01010672
:1056500030130001090001100001110001240101B3
:1056600025FF01751B20094E2C0148000130202127
:105670002036300901540001310401320301408316
:10568000014625016000012700015006015100017B
:105690005296015608015730016100016200016411
:1056A000000165000166A045300B2232014714015C
:1056B00049FF014A6920097A0A017B0001782160CB
:1056C000201B23340142000144FF01452601460509
:1056D000014040010E0601201A0143402A200634F1
:1056E0000301354487117520094B09014C05014D13
:1056F0000442301D440001452001470801482801AB
:1057000067000170040171010172FE0176000177EA
:10571000B7230D0169200680010101F8C6128EE44D
:10572000411241F3311B51F9106701014F0201FF92
:105730000E01000301018401020A010303010408B0
:105740000105C801060301078D0108080109C6010A
:105750000A01010B02010C00010DD5010E18010F09
:10576000120110010111820112000113D501141858
:1057700001151301160301178601180A0119090101
:105780001A08011BC2011C03011D8F011E0A011F03
:10579000D51431010121020122000123D501241871
:1057A0000125220126010127820128000129D501B6
:1057B0002A18012B0B012C28012D78012E28012FEE
:1057C0009101306B34380B01320001330B0134008E
:1057D0000135A10136000137A0013800013904016B
:1057E0003A28013B30013C0C013D04013E0F013FD2
:1057F0007901402801411E01422F014387202408DE
:105800000B01460001470BBF2749A77A24064BA688
:10581000014C0041124EF315B6242F0001518001B6
:10582000520901530801540101550001560F015757
:1058300079015809015905015A00015B60015C05B5
:10584000015DD1015E0C015F3CEC142C61D0016262
:105850000B01630301642801651001662A016739A1
:1058600001680B016902016A28016B10016C2A01B1
:105870006D61016E0C016F9534110F017179017228
:105880000001730B01740001750B9E140DA10178CA
:10589000000179A0017A00017BCB441F0401791D2E
:1058A000017B2701960E0197FE0198030199EF01F4
:1058B0009A02019B440173070170A425B949AC12F7
:1058C0000A0452050C410822400514041200E8D8CD
:1058D000630E0A0E1004400D030E23991921323C69
:1058E0001C43120E2A30052000204E2A30040000EE
:0C58F000034012200732E80B000000000B
:04000005080000ED02
:00000001FF
